{
  "contractName": "MyToken",
  "abi": [
    {
      "inputs": [
        {
          "internalType": "uint256",
          "name": "initialDDay",
          "type": "uint256"
        }
      ],
      "stateMutability": "nonpayable",
      "type": "constructor"
    },
    {
      "anonymous": false,
      "inputs": [
        {
          "indexed": true,
          "internalType": "address",
          "name": "owner",
          "type": "address"
        },
        {
          "indexed": true,
          "internalType": "address",
          "name": "spender",
          "type": "address"
        },
        {
          "indexed": false,
          "internalType": "uint256",
          "name": "value",
          "type": "uint256"
        }
      ],
      "name": "Approval",
      "type": "event"
    },
    {
      "anonymous": false,
      "inputs": [
        {
          "indexed": true,
          "internalType": "address",
          "name": "previousOwner",
          "type": "address"
        },
        {
          "indexed": true,
          "internalType": "address",
          "name": "newOwner",
          "type": "address"
        }
      ],
      "name": "OwnershipTransferred",
      "type": "event"
    },
    {
      "anonymous": false,
      "inputs": [
        {
          "indexed": true,
          "internalType": "address",
          "name": "from",
          "type": "address"
        },
        {
          "indexed": true,
          "internalType": "address",
          "name": "to",
          "type": "address"
        },
        {
          "indexed": false,
          "internalType": "uint256",
          "name": "value",
          "type": "uint256"
        }
      ],
      "name": "Transfer",
      "type": "event"
    },
    {
      "inputs": [
        {
          "internalType": "address",
          "name": "owner",
          "type": "address"
        },
        {
          "internalType": "address",
          "name": "spender",
          "type": "address"
        }
      ],
      "name": "allowance",
      "outputs": [
        {
          "internalType": "uint256",
          "name": "",
          "type": "uint256"
        }
      ],
      "stateMutability": "view",
      "type": "function"
    },
    {
      "inputs": [
        {
          "internalType": "address",
          "name": "spender",
          "type": "address"
        },
        {
          "internalType": "uint256",
          "name": "amount",
          "type": "uint256"
        }
      ],
      "name": "approve",
      "outputs": [
        {
          "internalType": "bool",
          "name": "",
          "type": "bool"
        }
      ],
      "stateMutability": "nonpayable",
      "type": "function"
    },
    {
      "inputs": [
        {
          "internalType": "address",
          "name": "account",
          "type": "address"
        }
      ],
      "name": "balanceOf",
      "outputs": [
        {
          "internalType": "uint256",
          "name": "",
          "type": "uint256"
        }
      ],
      "stateMutability": "view",
      "type": "function"
    },
    {
      "inputs": [
        {
          "internalType": "uint256",
          "name": "amount",
          "type": "uint256"
        }
      ],
      "name": "burn",
      "outputs": [],
      "stateMutability": "nonpayable",
      "type": "function"
    },
    {
      "inputs": [
        {
          "internalType": "address",
          "name": "account",
          "type": "address"
        },
        {
          "internalType": "uint256",
          "name": "amount",
          "type": "uint256"
        }
      ],
      "name": "burnFrom",
      "outputs": [],
      "stateMutability": "nonpayable",
      "type": "function"
    },
    {
      "inputs": [],
      "name": "decimals",
      "outputs": [
        {
          "internalType": "uint8",
          "name": "",
          "type": "uint8"
        }
      ],
      "stateMutability": "view",
      "type": "function"
    },
    {
      "inputs": [
        {
          "internalType": "address",
          "name": "spender",
          "type": "address"
        },
        {
          "internalType": "uint256",
          "name": "subtractedValue",
          "type": "uint256"
        }
      ],
      "name": "decreaseAllowance",
      "outputs": [
        {
          "internalType": "bool",
          "name": "",
          "type": "bool"
        }
      ],
      "stateMutability": "nonpayable",
      "type": "function"
    },
    {
      "inputs": [
        {
          "internalType": "address",
          "name": "spender",
          "type": "address"
        },
        {
          "internalType": "uint256",
          "name": "addedValue",
          "type": "uint256"
        }
      ],
      "name": "increaseAllowance",
      "outputs": [
        {
          "internalType": "bool",
          "name": "",
          "type": "bool"
        }
      ],
      "stateMutability": "nonpayable",
      "type": "function"
    },
    {
      "inputs": [],
      "name": "name",
      "outputs": [
        {
          "internalType": "string",
          "name": "",
          "type": "string"
        }
      ],
      "stateMutability": "view",
      "type": "function"
    },
    {
      "inputs": [],
      "name": "owner",
      "outputs": [
        {
          "internalType": "address",
          "name": "",
          "type": "address"
        }
      ],
      "stateMutability": "view",
      "type": "function"
    },
    {
      "inputs": [],
      "name": "renounceOwnership",
      "outputs": [],
      "stateMutability": "nonpayable",
      "type": "function"
    },
    {
      "inputs": [],
      "name": "symbol",
      "outputs": [
        {
          "internalType": "string",
          "name": "",
          "type": "string"
        }
      ],
      "stateMutability": "view",
      "type": "function"
    },
    {
      "inputs": [],
      "name": "totalSupply",
      "outputs": [
        {
          "internalType": "uint256",
          "name": "",
          "type": "uint256"
        }
      ],
      "stateMutability": "view",
      "type": "function"
    },
    {
      "inputs": [
        {
          "internalType": "address",
          "name": "to",
          "type": "address"
        },
        {
          "internalType": "uint256",
          "name": "amount",
          "type": "uint256"
        }
      ],
      "name": "transfer",
      "outputs": [
        {
          "internalType": "bool",
          "name": "",
          "type": "bool"
        }
      ],
      "stateMutability": "nonpayable",
      "type": "function"
    },
    {
      "inputs": [
        {
          "internalType": "address",
          "name": "from",
          "type": "address"
        },
        {
          "internalType": "address",
          "name": "to",
          "type": "address"
        },
        {
          "internalType": "uint256",
          "name": "amount",
          "type": "uint256"
        }
      ],
      "name": "transferFrom",
      "outputs": [
        {
          "internalType": "bool",
          "name": "",
          "type": "bool"
        }
      ],
      "stateMutability": "nonpayable",
      "type": "function"
    },
    {
      "inputs": [
        {
          "internalType": "address",
          "name": "newOwner",
          "type": "address"
        }
      ],
      "name": "transferOwnership",
      "outputs": [],
      "stateMutability": "nonpayable",
      "type": "function"
    },
    {
      "inputs": [
        {
          "internalType": "uint256",
          "name": "dDay",
          "type": "uint256"
        }
      ],
      "name": "setDDay",
      "outputs": [],
      "stateMutability": "nonpayable",
      "type": "function"
    },
    {
      "inputs": [],
      "name": "getDDay",
      "outputs": [
        {
          "internalType": "uint256",
          "name": "",
          "type": "uint256"
        }
      ],
      "stateMutability": "view",
      "type": "function"
    },
    {
      "inputs": [
        {
          "internalType": "address",
          "name": "beneficiary",
          "type": "address"
        }
      ],
      "name": "lockedItemsOf",
      "outputs": [
        {
          "components": [
            {
              "internalType": "uint256",
              "name": "amount",
              "type": "uint256"
            },
            {
              "internalType": "uint256",
              "name": "releaseTime",
              "type": "uint256"
            }
          ],
          "internalType": "struct MyToken.LockedItem[]",
          "name": "",
          "type": "tuple[]"
        }
      ],
      "stateMutability": "view",
      "type": "function"
    },
    {
      "inputs": [
        {
          "internalType": "address",
          "name": "beneficiary",
          "type": "address"
        }
      ],
      "name": "lockedAmount",
      "outputs": [
        {
          "internalType": "uint256",
          "name": "",
          "type": "uint256"
        }
      ],
      "stateMutability": "view",
      "type": "function"
    },
    {
      "inputs": [
        {
          "internalType": "address",
          "name": "beneficiary",
          "type": "address"
        },
        {
          "internalType": "uint256",
          "name": "amount",
          "type": "uint256"
        },
        {
          "internalType": "uint256",
          "name": "cliffInDays",
          "type": "uint256"
        },
        {
          "internalType": "uint256",
          "name": "periodInDays",
          "type": "uint256"
        },
        {
          "internalType": "uint256",
          "name": "times",
          "type": "uint256"
        }
      ],
      "name": "allocateWithLock",
      "outputs": [],
      "stateMutability": "nonpayable",
      "type": "function"
    }
  ],
  "bytecode": "0x608060405234801562000010575f80fd5b5060405162002e6538038062002e6583398181016040528101906200003691906200041a565b6040518060400160405280600781526020017f4253546f6b656e000000000000000000000000000000000000000000000000008152506040518060400160405280600381526020017f42535400000000000000000000000000000000000000000000000000000000008152508160039081620000b39190620006a5565b508060049081620000c59190620006a5565b505050620000e8620000dc6200013b60201b60201c565b6200014260201b60201c565b806006819055505f620001006200020560201b60201c565b600a6200010e919062000912565b633b9aca006200011f919062000962565b90506200013333826200020d60201b60201c565b505062000b24565b5f33905090565b5f60055f9054906101000a900473ffffffffffffffffffffffffffffffffffffffff1690508160055f6101000a81548173ffffffffffffffffffffffffffffffffffffffff021916908373ffffffffffffffffffffffffffffffffffffffff1602179055508173ffffffffffffffffffffffffffffffffffffffff168173ffffffffffffffffffffffffffffffffffffffff167f8be0079c531659141344cd1fd0a4f28419497f9722a3daafe3b4186f6b6457e060405160405180910390a35050565b5f6012905090565b5f73ffffffffffffffffffffffffffffffffffffffff168273ffffffffffffffffffffffffffffffffffffffff16036200027e576040517f08c379a0000000000000000000000000000000000000000000000000000000008152600401620002759062000a0a565b60405180910390fd5b620002915f83836200037260201b60201c565b8060025f828254620002a4919062000a2a565b92505081905550805f808473ffffffffffffffffffffffffffffffffffffffff1673ffffffffffffffffffffffffffffffffffffffff1681526020019081526020015f205f82825401925050819055508173ffffffffffffffffffffffffffffffffffffffff165f73ffffffffffffffffffffffffffffffffffffffff167fddf252ad1be2c89b69c2b068fc378daa952ba7f163c4a11628f55a4df523b3ef8360405162000353919062000a75565b60405180910390a36200036e5f8383620003d460201b60201c565b5050565b5f600190506200038a848484620003d960201b60201c565b8015620003ce576040517f08c379a0000000000000000000000000000000000000000000000000000000008152600401620003c59062000b04565b60405180910390fd5b50505050565b505050565b505050565b5f80fd5b5f819050919050565b620003f681620003e2565b811462000401575f80fd5b50565b5f815190506200041481620003eb565b92915050565b5f60208284031215620004325762000431620003de565b5b5f620004418482850162000404565b91505092915050565b5f81519050919050565b7f4e487b71000000000000000000000000000000000000000000000000000000005f52604160045260245ffd5b7f4e487b71000000000000000000000000000000000000000000000000000000005f52602260045260245ffd5b5f6002820490506001821680620004c657607f821691505b602082108103620004dc57620004db62000481565b5b50919050565b5f819050815f5260205f209050919050565b5f6020601f8301049050919050565b5f82821b905092915050565b5f60088302620005407fffffffffffffffffffffffffffffffffffffffffffffffffffffffffffffffff8262000503565b6200054c868362000503565b95508019841693508086168417925050509392505050565b5f819050919050565b5f6200058d620005876200058184620003e2565b62000564565b620003e2565b9050919050565b5f819050919050565b620005a8836200056d565b620005c0620005b78262000594565b8484546200050f565b825550505050565b5f90565b620005d6620005c8565b620005e38184846200059d565b505050565b5b818110156200060a57620005fe5f82620005cc565b600181019050620005e9565b5050565b601f82111562000659576200062381620004e2565b6200062e84620004f4565b810160208510156200063e578190505b620006566200064d85620004f4565b830182620005e8565b50505b505050565b5f82821c905092915050565b5f6200067b5f19846008026200065e565b1980831691505092915050565b5f6200069583836200066a565b9150826002028217905092915050565b620006b0826200044a565b67ffffffffffffffff811115620006cc57620006cb62000454565b5b620006d88254620004ae565b620006e58282856200060e565b5f60209050601f8311600181146200071b575f841562000706578287015190505b62000712858262000688565b86555062000781565b601f1984166200072b86620004e2565b5f5b8281101562000754578489015182556001820191506020850194506020810190506200072d565b8683101562000774578489015162000770601f8916826200066a565b8355505b6001600288020188555050505b505050505050565b7f4e487b71000000000000000000000000000000000000000000000000000000005f52601160045260245ffd5b5f8160011c9050919050565b5f808291508390505b60018511156200081357808604811115620007eb57620007ea62000789565b5b6001851615620007fb5780820291505b80810290506200080b85620007b6565b9450620007cb565b94509492505050565b5f826200082d5760019050620008ff565b816200083c575f9050620008ff565b8160018114620008555760028114620008605762000896565b6001915050620008ff565b60ff84111562000875576200087462000789565b5b8360020a9150848211156200088f576200088e62000789565b5b50620008ff565b5060208310610133831016604e8410600b8410161715620008d05782820a905083811115620008ca57620008c962000789565b5b620008ff565b620008df8484846001620007c2565b92509050818404811115620008f957620008f862000789565b5b81810290505b9392505050565b5f60ff82169050919050565b5f6200091e82620003e2565b91506200092b8362000906565b92506200095a7fffffffffffffffffffffffffffffffffffffffffffffffffffffffffffffffff84846200081c565b905092915050565b5f6200096e82620003e2565b91506200097b83620003e2565b92508282026200098b81620003e2565b91508282048414831517620009a557620009a462000789565b5b5092915050565b5f82825260208201905092915050565b7f45524332303a206d696e7420746f20746865207a65726f2061646472657373005f82015250565b5f620009f2601f83620009ac565b9150620009ff82620009bc565b602082019050919050565b5f6020820190508181035f83015262000a2381620009e4565b9050919050565b5f62000a3682620003e2565b915062000a4383620003e2565b925082820190508082111562000a5e5762000a5d62000789565b5b92915050565b62000a6f81620003e2565b82525050565b5f60208201905062000a8a5f83018462000a64565b92915050565b7f4253546f6b656e3a20696e73756666696369656e7420756e6c6f636b656420625f8201527f616c616e63650000000000000000000000000000000000000000000000000000602082015250565b5f62000aec602683620009ac565b915062000af98262000a90565b604082019050919050565b5f6020820190508181035f83015262000b1d8162000ade565b9050919050565b6123338062000b325f395ff3fe608060405234801561000f575f80fd5b5060043610610135575f3560e01c806370a08231116100b657806395d89b411161007a57806395d89b4114610339578063a153e70814610357578063a457c2d714610387578063a9059cbb146103b7578063dd62ed3e146103e7578063f2fde38b1461041757610135565b806370a08231146102a7578063715018a6146102d757806379cc6790146102e15780638da5cb5b146102fd578063947c428b1461031b57610135565b8063368d8ffb116100fd578063368d8ffb146101f3578063395093511461022357806340b9a02d1461025357806342966c681461026f57806359105ade1461028b57610135565b806306fdde0314610139578063095ea7b31461015757806318160ddd1461018757806323b872dd146101a5578063313ce567146101d5575b5f80fd5b610141610433565b60405161014e9190611605565b60405180910390f35b610171600480360381019061016c91906116b6565b6104c3565b60405161017e919061170e565b60405180910390f35b61018f6104e5565b60405161019c9190611736565b60405180910390f35b6101bf60048036038101906101ba919061174f565b6104ee565b6040516101cc919061170e565b60405180910390f35b6101dd61051c565b6040516101ea91906117ba565b60405180910390f35b61020d600480360381019061020891906117d3565b610524565b60405161021a91906118e2565b60405180910390f35b61023d600480360381019061023891906116b6565b6105d0565b60405161024a919061170e565b60405180910390f35b61026d60048036038101906102689190611902565b610606565b005b61028960048036038101906102849190611979565b61074e565b005b6102a560048036038101906102a09190611979565b610762565b005b6102c160048036038101906102bc91906117d3565b610774565b6040516102ce9190611736565b60405180910390f35b6102df6107b9565b005b6102fb60048036038101906102f691906116b6565b6107cc565b005b6103056107ec565b60405161031291906119b3565b60405180910390f35b610323610814565b6040516103309190611736565b60405180910390f35b61034161081d565b60405161034e9190611605565b60405180910390f35b610371600480360381019061036c91906117d3565b6108ad565b60405161037e9190611736565b60405180910390f35b6103a1600480360381019061039c91906116b6565b6109be565b6040516103ae919061170e565b60405180910390f35b6103d160048036038101906103cc91906116b6565b610a33565b6040516103de919061170e565b60405180910390f35b61040160048036038101906103fc91906119cc565b610a55565b60405161040e9190611736565b60405180910390f35b610431600480360381019061042c91906117d3565b610ad7565b005b60606003805461044290611a37565b80601f016020809104026020016040519081016040528092919081815260200182805461046e90611a37565b80156104b95780601f10610490576101008083540402835291602001916104b9565b820191905f5260205f20905b81548152906001019060200180831161049c57829003601f168201915b5050505050905090565b5f806104cd610b59565b90506104da818585610b60565b600191505092915050565b5f600254905090565b5f806104f8610b59565b9050610505858285610d23565b610510858585610dae565b60019150509392505050565b5f6012905090565b606060075f8373ffffffffffffffffffffffffffffffffffffffff1673ffffffffffffffffffffffffffffffffffffffff1681526020019081526020015f20805480602002602001604051908101604052809291908181526020015f905b828210156105c5578382905f5260205f2090600202016040518060400160405290815f820154815260200160018201548152505081526020019060010190610582565b505050509050919050565b5f806105da610b59565b90506105fb8185856105ec8589610a55565b6105f69190611a94565b610b60565b600191505092915050565b61060e610e25565b8361061833610774565b1015610659576040517f08c379a000000000000000000000000000000000000000000000000000000000815260040161065090611b11565b60405180910390fd5b5f81856106669190611b5c565b90505f6201518090505f5b838110156107395760075f8973ffffffffffffffffffffffffffffffffffffffff1673ffffffffffffffffffffffffffffffffffffffff1681526020019081526020015f2060405180604001604052808581526020018484896106d49190611b8c565b8a6106df9190611a94565b6106e99190611b8c565b815250908060018154018082558091505060019003905f5260205f2090600202015f909190919091505f820151815f0155602082015181600101555050808061073190611bcd565b915050610671565b50610745338888610dae565b50505050505050565b61075f610759610b59565b82610ea3565b50565b61076a610e25565b8060068190555050565b5f805f8373ffffffffffffffffffffffffffffffffffffffff1673ffffffffffffffffffffffffffffffffffffffff1681526020019081526020015f20549050919050565b6107c1610e25565b6107ca5f611066565b565b6107de826107d8610b59565b83610d23565b6107e88282610ea3565b5050565b5f60055f9054906101000a900473ffffffffffffffffffffffffffffffffffffffff16905090565b5f600654905090565b60606004805461082c90611a37565b80601f016020809104026020016040519081016040528092919081815260200182805461085890611a37565b80156108a35780601f1061087a576101008083540402835291602001916108a3565b820191905f5260205f20905b81548152906001019060200180831161088657829003601f168201915b5050505050905090565b5f805f5b60075f8573ffffffffffffffffffffffffffffffffffffffff1673ffffffffffffffffffffffffffffffffffffffff1681526020019081526020015f20805490508110156109b4575f60075f8673ffffffffffffffffffffffffffffffffffffffff1673ffffffffffffffffffffffffffffffffffffffff1681526020019081526020015f20828154811061094957610948611c14565b5b905f5260205f2090600202016040518060400160405290815f820154815260200160018201548152505090504281602001516006546109889190611a94565b11156109a057805f01518361099d9190611a94565b92505b5080806109ac90611bcd565b9150506108b1565b5080915050919050565b5f806109c8610b59565b90505f6109d58286610a55565b905083811015610a1a576040517f08c379a0000000000000000000000000000000000000000000000000000000008152600401610a1190611cb1565b60405180910390fd5b610a278286868403610b60565b60019250505092915050565b5f80610a3d610b59565b9050610a4a818585610dae565b600191505092915050565b5f60015f8473ffffffffffffffffffffffffffffffffffffffff1673ffffffffffffffffffffffffffffffffffffffff1681526020019081526020015f205f8373ffffffffffffffffffffffffffffffffffffffff1673ffffffffffffffffffffffffffffffffffffffff1681526020019081526020015f2054905092915050565b610adf610e25565b5f73ffffffffffffffffffffffffffffffffffffffff168173ffffffffffffffffffffffffffffffffffffffff1603610b4d576040517f08c379a0000000000000000000000000000000000000000000000000000000008152600401610b4490611d3f565b60405180910390fd5b610b5681611066565b50565b5f33905090565b5f73ffffffffffffffffffffffffffffffffffffffff168373ffffffffffffffffffffffffffffffffffffffff1603610bce576040517f08c379a0000000000000000000000000000000000000000000000000000000008152600401610bc590611dcd565b60405180910390fd5b5f73ffffffffffffffffffffffffffffffffffffffff168273ffffffffffffffffffffffffffffffffffffffff1603610c3c576040517f08c379a0000000000000000000000000000000000000000000000000000000008152600401610c3390611e5b565b60405180910390fd5b8060015f8573ffffffffffffffffffffffffffffffffffffffff1673ffffffffffffffffffffffffffffffffffffffff1681526020019081526020015f205f8473ffffffffffffffffffffffffffffffffffffffff1673ffffffffffffffffffffffffffffffffffffffff1681526020019081526020015f20819055508173ffffffffffffffffffffffffffffffffffffffff168373ffffffffffffffffffffffffffffffffffffffff167f8c5be1e5ebec7d5bd14f71427d1e84f3dd0314c0f7b2291e5b200ac8c7c3b92583604051610d169190611736565b60405180910390a3505050565b5f610d2e8484610a55565b90507fffffffffffffffffffffffffffffffffffffffffffffffffffffffffffffffff8114610da85781811015610d9a576040517f08c379a0000000000000000000000000000000000000000000000000000000008152600401610d9190611ec3565b60405180910390fd5b610da78484848403610b60565b5b50505050565b610db783611129565b80610dc1846108ad565b610dcb9190611a94565b610dd484610774565b1015610e15576040517f08c379a0000000000000000000000000000000000000000000000000000000008152600401610e0c90611f51565b60405180910390fd5b610e208383836112ae565b505050565b610e2d610b59565b73ffffffffffffffffffffffffffffffffffffffff16610e4b6107ec565b73ffffffffffffffffffffffffffffffffffffffff1614610ea1576040517f08c379a0000000000000000000000000000000000000000000000000000000008152600401610e9890611fb9565b60405180910390fd5b565b5f73ffffffffffffffffffffffffffffffffffffffff168273ffffffffffffffffffffffffffffffffffffffff1603610f11576040517f08c379a0000000000000000000000000000000000000000000000000000000008152600401610f0890612047565b60405180910390fd5b610f1c825f8361151a565b5f805f8473ffffffffffffffffffffffffffffffffffffffff1673ffffffffffffffffffffffffffffffffffffffff1681526020019081526020015f2054905081811015610f9f576040517f08c379a0000000000000000000000000000000000000000000000000000000008152600401610f96906120d5565b60405180910390fd5b8181035f808573ffffffffffffffffffffffffffffffffffffffff1673ffffffffffffffffffffffffffffffffffffffff1681526020019081526020015f20819055508160025f82825403925050819055505f73ffffffffffffffffffffffffffffffffffffffff168373ffffffffffffffffffffffffffffffffffffffff167fddf252ad1be2c89b69c2b068fc378daa952ba7f163c4a11628f55a4df523b3ef8460405161104e9190611736565b60405180910390a3611061835f84611571565b505050565b5f60055f9054906101000a900473ffffffffffffffffffffffffffffffffffffffff1690508160055f6101000a81548173ffffffffffffffffffffffffffffffffffffffff021916908373ffffffffffffffffffffffffffffffffffffffff1602179055508173ffffffffffffffffffffffffffffffffffffffff168173ffffffffffffffffffffffffffffffffffffffff167f8be0079c531659141344cd1fd0a4f28419497f9722a3daafe3b4186f6b6457e060405160405180910390a35050565b5b5f60075f8373ffffffffffffffffffffffffffffffffffffffff1673ffffffffffffffffffffffffffffffffffffffff1681526020019081526020015f208054905011801561123057504260075f8373ffffffffffffffffffffffffffffffffffffffff1673ffffffffffffffffffffffffffffffffffffffff1681526020019081526020015f20600160075f8573ffffffffffffffffffffffffffffffffffffffff1673ffffffffffffffffffffffffffffffffffffffff1681526020019081526020015f20805490506111ff91906120f3565b815481106112105761120f611c14565b5b905f5260205f2090600202016001015460065461122d9190611a94565b11155b156112ab5760075f8273ffffffffffffffffffffffffffffffffffffffff1673ffffffffffffffffffffffffffffffffffffffff1681526020019081526020015f2080548061128257611281612126565b5b600190038181905f5260205f2090600202015f8082015f9055600182015f90555050905561112a565b50565b5f73ffffffffffffffffffffffffffffffffffffffff168373ffffffffffffffffffffffffffffffffffffffff160361131c576040517f08c379a0000000000000000000000000000000000000000000000000000000008152600401611313906121c3565b60405180910390fd5b5f73ffffffffffffffffffffffffffffffffffffffff168273ffffffffffffffffffffffffffffffffffffffff160361138a576040517f08c379a000000000000000000000000000000000000000000000000000000000815260040161138190612251565b60405180910390fd5b61139583838361151a565b5f805f8573ffffffffffffffffffffffffffffffffffffffff1673ffffffffffffffffffffffffffffffffffffffff1681526020019081526020015f2054905081811015611418576040517f08c379a000000000000000000000000000000000000000000000000000000000815260040161140f906122df565b60405180910390fd5b8181035f808673ffffffffffffffffffffffffffffffffffffffff1673ffffffffffffffffffffffffffffffffffffffff1681526020019081526020015f2081905550815f808573ffffffffffffffffffffffffffffffffffffffff1673ffffffffffffffffffffffffffffffffffffffff1681526020019081526020015f205f82825401925050819055508273ffffffffffffffffffffffffffffffffffffffff168473ffffffffffffffffffffffffffffffffffffffff167fddf252ad1be2c89b69c2b068fc378daa952ba7f163c4a11628f55a4df523b3ef846040516115019190611736565b60405180910390a3611514848484611571565b50505050565b5f6001905061152a848484611576565b801561156b576040517f08c379a000000000000000000000000000000000000000000000000000000000815260040161156290611f51565b60405180910390fd5b50505050565b505050565b505050565b5f81519050919050565b5f82825260208201905092915050565b5f5b838110156115b2578082015181840152602081019050611597565b5f8484015250505050565b5f601f19601f8301169050919050565b5f6115d78261157b565b6115e18185611585565b93506115f1818560208601611595565b6115fa816115bd565b840191505092915050565b5f6020820190508181035f83015261161d81846115cd565b905092915050565b5f80fd5b5f73ffffffffffffffffffffffffffffffffffffffff82169050919050565b5f61165282611629565b9050919050565b61166281611648565b811461166c575f80fd5b50565b5f8135905061167d81611659565b92915050565b5f819050919050565b61169581611683565b811461169f575f80fd5b50565b5f813590506116b08161168c565b92915050565b5f80604083850312156116cc576116cb611625565b5b5f6116d98582860161166f565b92505060206116ea858286016116a2565b9150509250929050565b5f8115159050919050565b611708816116f4565b82525050565b5f6020820190506117215f8301846116ff565b92915050565b61173081611683565b82525050565b5f6020820190506117495f830184611727565b92915050565b5f805f6060848603121561176657611765611625565b5b5f6117738682870161166f565b93505060206117848682870161166f565b9250506040611795868287016116a2565b9150509250925092565b5f60ff82169050919050565b6117b48161179f565b82525050565b5f6020820190506117cd5f8301846117ab565b92915050565b5f602082840312156117e8576117e7611625565b5b5f6117f58482850161166f565b91505092915050565b5f81519050919050565b5f82825260208201905092915050565b5f819050602082019050919050565b61183081611683565b82525050565b604082015f82015161184a5f850182611827565b50602082015161185d6020850182611827565b50505050565b5f61186e8383611836565b60408301905092915050565b5f602082019050919050565b5f611890826117fe565b61189a8185611808565b93506118a583611818565b805f5b838110156118d55781516118bc8882611863565b97506118c78361187a565b9250506001810190506118a8565b5085935050505092915050565b5f6020820190508181035f8301526118fa8184611886565b905092915050565b5f805f805f60a0868803121561191b5761191a611625565b5b5f6119288882890161166f565b9550506020611939888289016116a2565b945050604061194a888289016116a2565b935050606061195b888289016116a2565b925050608061196c888289016116a2565b9150509295509295909350565b5f6020828403121561198e5761198d611625565b5b5f61199b848285016116a2565b91505092915050565b6119ad81611648565b82525050565b5f6020820190506119c65f8301846119a4565b92915050565b5f80604083850312156119e2576119e1611625565b5b5f6119ef8582860161166f565b9250506020611a008582860161166f565b9150509250929050565b7f4e487b71000000000000000000000000000000000000000000000000000000005f52602260045260245ffd5b5f6002820490506001821680611a4e57607f821691505b602082108103611a6157611a60611a0a565b5b50919050565b7f4e487b71000000000000000000000000000000000000000000000000000000005f52601160045260245ffd5b5f611a9e82611683565b9150611aa983611683565b9250828201905080821115611ac157611ac0611a67565b5b92915050565b7f4f776e6572206e6f7420656e6f75676820746f6b656e730000000000000000005f82015250565b5f611afb601783611585565b9150611b0682611ac7565b602082019050919050565b5f6020820190508181035f830152611b2881611aef565b9050919050565b7f4e487b71000000000000000000000000000000000000000000000000000000005f52601260045260245ffd5b5f611b6682611683565b9150611b7183611683565b925082611b8157611b80611b2f565b5b828204905092915050565b5f611b9682611683565b9150611ba183611683565b9250828202611baf81611683565b91508282048414831517611bc657611bc5611a67565b5b5092915050565b5f611bd782611683565b91507fffffffffffffffffffffffffffffffffffffffffffffffffffffffffffffffff8203611c0957611c08611a67565b5b600182019050919050565b7f4e487b71000000000000000000000000000000000000000000000000000000005f52603260045260245ffd5b7f45524332303a2064656372656173656420616c6c6f77616e63652062656c6f775f8201527f207a65726f000000000000000000000000000000000000000000000000000000602082015250565b5f611c9b602583611585565b9150611ca682611c41565b604082019050919050565b5f6020820190508181035f830152611cc881611c8f565b9050919050565b7f4f776e61626c653a206e6577206f776e657220697320746865207a65726f20615f8201527f6464726573730000000000000000000000000000000000000000000000000000602082015250565b5f611d29602683611585565b9150611d3482611ccf565b604082019050919050565b5f6020820190508181035f830152611d5681611d1d565b9050919050565b7f45524332303a20617070726f76652066726f6d20746865207a65726f206164645f8201527f7265737300000000000000000000000000000000000000000000000000000000602082015250565b5f611db7602483611585565b9150611dc282611d5d565b604082019050919050565b5f6020820190508181035f830152611de481611dab565b9050919050565b7f45524332303a20617070726f766520746f20746865207a65726f2061646472655f8201527f7373000000000000000000000000000000000000000000000000000000000000602082015250565b5f611e45602283611585565b9150611e5082611deb565b604082019050919050565b5f6020820190508181035f830152611e7281611e39565b9050919050565b7f45524332303a20696e73756666696369656e7420616c6c6f77616e63650000005f82015250565b5f611ead601d83611585565b9150611eb882611e79565b602082019050919050565b5f6020820190508181035f830152611eda81611ea1565b9050919050565b7f4253546f6b656e3a20696e73756666696369656e7420756e6c6f636b656420625f8201527f616c616e63650000000000000000000000000000000000000000000000000000602082015250565b5f611f3b602683611585565b9150611f4682611ee1565b604082019050919050565b5f6020820190508181035f830152611f6881611f2f565b9050919050565b7f4f776e61626c653a2063616c6c6572206973206e6f7420746865206f776e65725f82015250565b5f611fa3602083611585565b9150611fae82611f6f565b602082019050919050565b5f6020820190508181035f830152611fd081611f97565b9050919050565b7f45524332303a206275726e2066726f6d20746865207a65726f206164647265735f8201527f7300000000000000000000000000000000000000000000000000000000000000602082015250565b5f612031602183611585565b915061203c82611fd7565b604082019050919050565b5f6020820190508181035f83015261205e81612025565b9050919050565b7f45524332303a206275726e20616d6f756e7420657863656564732062616c616e5f8201527f6365000000000000000000000000000000000000000000000000000000000000602082015250565b5f6120bf602283611585565b91506120ca82612065565b604082019050919050565b5f6020820190508181035f8301526120ec816120b3565b9050919050565b5f6120fd82611683565b915061210883611683565b92508282039050818111156121205761211f611a67565b5b92915050565b7f4e487b71000000000000000000000000000000000000000000000000000000005f52603160045260245ffd5b7f45524332303a207472616e736665722066726f6d20746865207a65726f2061645f8201527f6472657373000000000000000000000000000000000000000000000000000000602082015250565b5f6121ad602583611585565b91506121b882612153565b604082019050919050565b5f6020820190508181035f8301526121da816121a1565b9050919050565b7f45524332303a207472616e7366657220746f20746865207a65726f20616464725f8201527f6573730000000000000000000000000000000000000000000000000000000000602082015250565b5f61223b602383611585565b9150612246826121e1565b604082019050919050565b5f6020820190508181035f8301526122688161222f565b9050919050565b7f45524332303a207472616e7366657220616d6f756e74206578636565647320625f8201527f616c616e63650000000000000000000000000000000000000000000000000000602082015250565b5f6122c9602683611585565b91506122d48261226f565b604082019050919050565b5f6020820190508181035f8301526122f6816122bd565b905091905056fea2646970667358221220dcec2a5b24f853d4836d6b5f5744e9fbc98e3cb1d881c1e0c3b24dc998b091a264736f6c63430008150033",
  "immutableReferences": {},
  "source": "// SPDX-License-Identifier: MIT\r\npragma solidity ^0.8.13;\r\n\r\nimport \"@openzeppelin/contracts/token/ERC20/extensions/ERC20Burnable.sol\";\r\nimport \"@openzeppelin/contracts/access/Ownable.sol\";\r\n//import \"@openzeppelin/contracts/Pausable.sol\";\r\n\r\ncontract MyToken is ERC20Burnable, Ownable {\r\n    // ---------------------------------------------------------\r\n    // D-Day:     (     )\r\n    // ---------------------------------------------------------\r\n    uint256 private _dDay;\r\n\r\n    // ---------------------------------------------------------\r\n    //   \r\n    // ---------------------------------------------------------\r\n    struct LockedItem {\r\n        uint256 amount;      //   \r\n        uint256 releaseTime; // D-Day + releaseTime     \r\n    }\r\n\r\n    // (beneficiary)   \r\n    mapping(address => LockedItem[]) private _lockedItems;\r\n\r\n    constructor(uint256 initialDDay) ERC20(\"BSToken\", \"BST\") {\r\n        _dDay = initialDDay;\r\n        uint256 totalSupplyAmount = 1_000_000_000 * 10**decimals();\r\n        _mint(msg.sender, totalSupplyAmount);\r\n    }\r\n\r\n    // ---------------------------------------------------------\r\n    // () \r\n    // ---------------------------------------------------------\r\n    function setDDay(uint256 dDay) external onlyOwner {\r\n        _dDay = dDay;\r\n    }\r\n\r\n    function getDDay() external view returns (uint256) {\r\n        return _dDay;\r\n    }\r\n\r\n    /**\r\n     * @dev Pausable:      \r\n     */\r\n\r\n    // ---------------------------------------------------------\r\n    // ()  \r\n    // ---------------------------------------------------------\r\n    function lockedItemsOf(address beneficiary) external view returns (LockedItem[] memory) {\r\n        return _lockedItems[beneficiary];\r\n    }\r\n\r\n    /**\r\n     * @dev    ' '   \r\n     */\r\n    function lockedAmount(address beneficiary) public view returns (uint256) {\r\n        uint256 total;\r\n        for (uint256 i = 0; i < _lockedItems[beneficiary].length; i++) {\r\n            LockedItem memory item = _lockedItems[beneficiary][i];\r\n            if (_dDay + item.releaseTime > block.timestamp) {\r\n                total += item.amount;\r\n            }\r\n        }\r\n        return total;\r\n    }\r\n\r\n    // ---------------------------------------------------------\r\n    // allocate() \r\n    //  -  beneficiary amount \r\n    //       (cliff, ,     push)\r\n    // ---------------------------------------------------------\r\n    function allocateWithLock(\r\n        address beneficiary,\r\n        uint256 amount,\r\n        uint256 cliffInDays,\r\n        uint256 periodInDays,\r\n        uint256 times //    \r\n    ) external onlyOwner {\r\n        require(balanceOf(msg.sender) >= amount, \"Owner not enough tokens\");\r\n\r\n\r\n        uint256 eachUnlockAmount = amount / times;\r\n        uint256 aDay = 24 * 3600;\r\n\r\n        //  : cliffInDays \r\n        //  periodInDays  times push\r\n        for (uint256 i = 0; i < times; i++) {\r\n            _lockedItems[beneficiary].push(\r\n                LockedItem({\r\n                    amount: eachUnlockAmount,\r\n                    releaseTime: (cliffInDays + periodInDays * i) * aDay\r\n                })\r\n            );\r\n        }\r\n\r\n        //   (  amount  , lockedItems   )\r\n        _transfer(msg.sender, beneficiary, amount);\r\n    }\r\n\r\n    // ---------------------------------------------------------\r\n    // : _beforeTokenTransfer, _transfer     \r\n    // ---------------------------------------------------------\r\n    function _beforeTokenTransfer(\r\n        address from,\r\n        address to,\r\n        uint256 amount\r\n    ) internal override {\r\n        // Pausable\r\n        bool temp = true;\r\n        super._beforeTokenTransfer(from, to, amount);\r\n        require(!temp, \"BSToken: insufficient unlocked balance\");\r\n    }\r\n\r\n    function _transfer(\r\n        address from,\r\n        address to,\r\n        uint256 amount\r\n    ) internal override {\r\n        //  ' ' LockedItem (  )\r\n        _clearUnlockedItems(from);\r\n\r\n        // ( - ) >=   \r\n        require(\r\n            balanceOf(from) >= lockedAmount(from) + amount,\r\n            \"BSToken: insufficient unlocked balance\"\r\n        );\r\n        super._transfer(from, to, amount);\r\n    }\r\n\r\n    /**\r\n     * @dev     pop() \r\n     */\r\n    function _clearUnlockedItems(address account) internal {\r\n        while (\r\n            _lockedItems[account].length > 0 &&\r\n            _dDay + _lockedItems[account][_lockedItems[account].length - 1].releaseTime \r\n                <= block.timestamp\r\n        ) {\r\n            _lockedItems[account].pop();\r\n        }\r\n    }\r\n}\r\n",
  "sourcePath": "C:\\BSToken\\BS-Token\\contracts\\bstoken.sol",
  "compiler": {
    "name": "solc",
    "version": "0.8.21+commit.d9974bed.Emscripten.clang"
  },
  "schemaVersion": "3.4.16",
  "updatedAt": "2025-01-24T10:08:13.452Z",
  "devdoc": {
    "events": {
      "Approval(address,address,uint256)": {
        "details": "Emitted when the allowance of a `spender` for an `owner` is set by a call to {approve}. `value` is the new allowance."
      },
      "Transfer(address,address,uint256)": {
        "details": "Emitted when `value` tokens are moved from one account (`from`) to another (`to`). Note that `value` may be zero."
      }
    },
    "kind": "dev",
    "methods": {
      "allowance(address,address)": {
        "details": "See {IERC20-allowance}."
      },
      "approve(address,uint256)": {
        "details": "See {IERC20-approve}. NOTE: If `amount` is the maximum `uint256`, the allowance is not updated on `transferFrom`. This is semantically equivalent to an infinite approval. Requirements: - `spender` cannot be the zero address."
      },
      "balanceOf(address)": {
        "details": "See {IERC20-balanceOf}."
      },
      "burn(uint256)": {
        "details": "Destroys `amount` tokens from the caller. See {ERC20-_burn}."
      },
      "burnFrom(address,uint256)": {
        "details": "Destroys `amount` tokens from `account`, deducting from the caller's allowance. See {ERC20-_burn} and {ERC20-allowance}. Requirements: - the caller must have allowance for ``accounts``'s tokens of at least `amount`."
      },
      "decimals()": {
        "details": "Returns the number of decimals used to get its user representation. For example, if `decimals` equals `2`, a balance of `505` tokens should be displayed to a user as `5.05` (`505 / 10 ** 2`). Tokens usually opt for a value of 18, imitating the relationship between Ether and Wei. This is the default value returned by this function, unless it's overridden. NOTE: This information is only used for _display_ purposes: it in no way affects any of the arithmetic of the contract, including {IERC20-balanceOf} and {IERC20-transfer}."
      },
      "decreaseAllowance(address,uint256)": {
        "details": "Atomically decreases the allowance granted to `spender` by the caller. This is an alternative to {approve} that can be used as a mitigation for problems described in {IERC20-approve}. Emits an {Approval} event indicating the updated allowance. Requirements: - `spender` cannot be the zero address. - `spender` must have allowance for the caller of at least `subtractedValue`."
      },
      "increaseAllowance(address,uint256)": {
        "details": "Atomically increases the allowance granted to `spender` by the caller. This is an alternative to {approve} that can be used as a mitigation for problems described in {IERC20-approve}. Emits an {Approval} event indicating the updated allowance. Requirements: - `spender` cannot be the zero address."
      },
      "lockedAmount(address)": {
        "details": "   ' '   "
      },
      "lockedItemsOf(address)": {
        "details": "Pausable:      "
      },
      "name()": {
        "details": "Returns the name of the token."
      },
      "owner()": {
        "details": "Returns the address of the current owner."
      },
      "renounceOwnership()": {
        "details": "Leaves the contract without owner. It will not be possible to call `onlyOwner` functions. Can only be called by the current owner. NOTE: Renouncing ownership will leave the contract without an owner, thereby disabling any functionality that is only available to the owner."
      },
      "symbol()": {
        "details": "Returns the symbol of the token, usually a shorter version of the name."
      },
      "totalSupply()": {
        "details": "See {IERC20-totalSupply}."
      },
      "transfer(address,uint256)": {
        "details": "See {IERC20-transfer}. Requirements: - `to` cannot be the zero address. - the caller must have a balance of at least `amount`."
      },
      "transferFrom(address,address,uint256)": {
        "details": "See {IERC20-transferFrom}. Emits an {Approval} event indicating the updated allowance. This is not required by the EIP. See the note at the beginning of {ERC20}. NOTE: Does not update the allowance if the current allowance is the maximum `uint256`. Requirements: - `from` and `to` cannot be the zero address. - `from` must have a balance of at least `amount`. - the caller must have allowance for ``from``'s tokens of at least `amount`."
      },
      "transferOwnership(address)": {
        "details": "Transfers ownership of the contract to a new account (`newOwner`). Can only be called by the current owner."
      }
    },
    "version": 1
  },
  "userdoc": {
    "kind": "user",
    "methods": {},
    "version": 1
  }
}